:020000040800F2
:100000008804002001010008D3100008D90E000860
:10001000D11000086D0100089D14000800000000C8
:10002000000000000000000000000000F7100008C1
:100030000502000800000000F5100008F910000893
:100040001B0100081B0100081B0100081B01000820
:100050001B0100081B0100081B0100081B01000810
:100060001B0100081B0100081B0100081B01000800
:100070001B0100081B0100081B0100081B010008F0
:100080001B0100081B0100081B0100081B010008E0
:100090001B0100081B0100081B0100081B010008D0
:1000A0001B0100081B0100081B0100081B010008C0
:1000B0001B0100081B0100081B0100081B010008B0
:1000C0001B0100081B0100081B0100081B010008A0
:1000D0001B010008911400081B0100081B01000807
:1000E0001B0100081B0100081B010008DFF80CD0F1
:1000F00000F02AF800480047F9150008880400209D
:100100000648804706480047FEE7FEE7FEE7FEE7B1
:10011000FEE7FEE7FEE7FEE7FEE7FEE74D1100081B
:10012000ED000008D2B201E000F8012B491EFBD21D
:1001300070470022F6E710B513460A4604461946F2
:10014000FFF7F0FF204610BD064C074D06E0E068C3
:1001500040F0010394E8070098471034AC42F6D30E
:10016000FFF7C8FF2018000840180008FEE700004D
:1001700010B501F039FB00224021054800F089F953
:1001800044F2506000F028F8BDE8104001F01EBBBA
:10019000000801400E48016821F08071016001688B
:1001A00041F0807101600B48016821F0010101609C
:1001B000016841F0010101600021416000BF00BF02
:1001C00000BF406808B10020704701207047000060
:1001D000FCED00E0001000E031B5084D6C6800F067
:1001E000AFFA0749B0FBF1F0009948430090686806
:1001F0000099001B8842FAD338BD0000001000E0CF
:1002000040420F007047000010B590F82110002404
:10021000022903D00421816301243DE001680A68BA
:1002200022F00E020A6001680A6822F001020A60E8
:100230001A4A0168914201D1012121E0174A143282
:10024000914201D110211BE0144A2832914201D180
:10025000891515E0114A3C32914201D189140FE011
:100260000E4A5032914202D14FF4803108E00B4ADD
:100270006432914202D14FF4801101E04FF080715D
:10028000064A083A5160012180F82110002180F8C7
:100290002010416B01B18847204610BD0800024084
:1002A00070B5044600F0FAF80546601C02D0044818
:1002B0000078044400F0F2F8401BA042FAD370BD6D
:1002C000100000202DE9F84FDFF890A100220AF17C
:1002D000040B144601274FF00F090BF1040E00BF69
:1002E0000B6807FA04F52B40AB4274D1DFF870C1FC
:1002F0004E68A6EB0C0866452BD00DDC032E34D0DF
:1003000005DC36B3012E19D0022E2FD11BE0112EA1
:1003100016D0122E2AD119E0B8F5881F19D006DCA4
:10032000B8F5803F15D0B8F5801F1FD111E0B8F5A2
:10033000001F0ED0B8F5041F18D10AE0CA6815E0F6
:10034000CA68121D12E0CA6808320FE0CA680C328F
:100350000CE08A682AB1012A4FF0080203D04561F7
:1003600004E0042202E0056100E00022FF2B01D836
:10037000064601E000F104064FEA840501D9A5F123
:100380002005D6F800C009FA05F82CEA080C02FA94
:1003900005F54CEA050CC6F800C04D68ED0057D5D0
:1003A000304DAE6946F00106AE61AD6924F003063A
:1003B00005F0010500952C4D06EB050CDCF8085006
:1003C000A6074FEA167809FA08F6B543274EB04259
:1003D00002D1002610E03BE0254EB04201D10126BB
:1003E0000AE0244EB04201D1022605E0224EB0427E
:1003F00001D1032600E0042606FA08F62E43CCF8C5
:1004000008604D68DAF80060ED03554601D51E43DB
:1004100000E09E432E604D68DBF80060AD035D4652
:1004200001D51E4300E09E432E604D68DEF800605B
:10043000ED02754601D51E4300E09E432E604D68D7
:10044000AD020E4D2E6801D51E4300E09E432E6086
:10045000641C102CFFF444AFBDE8F88F0004014089
:10046000000011100010024000000140000801408F
:10047000000C014000100140001401400C04014038
:100480008068084000D001207047C2684A40C260BE
:1004900070470AB1016170470904FBE701488068B1
:1004A0007047000010000020024881680278114463
:1004B0008160704710000020074810B5016841F0C6
:1004C00010010160032000F073F8002000F006F82E
:1004D00000F024F8002010BD0020024070B50D4D42
:1004E00004464FF47A712878B1FBF0F00A490968A4
:1004F000B1FBF0F000F002FB48B9102C07D200224B
:100500002146501E00F034F800206C6070BD0120C0
:1005100070BD0000100000201C0000200C4808B531
:10052000816941F001018161816901F0010100915E
:10053000C16941F08051C161C06900F080500090F4
:100540000448416821F0E06141F00071416008BD5C
:10055000001002400000014000F01F020121914004
:100560004009800000F1E020C0F800117047000051
:10057000F0B40E4B1B680C46C3F30223C3F107050E
:10058000042D00D90425191D072901D2002300E0FC
:10059000DB1E012606FA05F1491E214099409E40C6
:1005A000761E16403143F0BC00F094BD0CED00E027
:1005B000064900F0070208684FF6FF03184040EABA
:1005C0000220034A10430860704700000CED00E071
:1005D0000000FA052DE9F047DFF8548105460E4684
:1005E000D8F8000000F00700B0420CD2D8F8001094
:1005F00021F007013143C8F80010D8F8000000F0DE
:100600000700B0426FD128684A4C810712D54007D5
:1006100003D5606840F4E06060602878000703D587
:10062000606840F4605060606068A96820F0F00085
:10063000084360602878C00744D06868012816D055
:100640002168022816D0890700294CDA616821F058
:10065000030101436160FFF721FF6968074641F22A
:10066000883001290ED00229814618D026E0216861
:100670008903E9E78901E7E7FFF710FFC11B494557
:1006800001D918E081466068C0F381000128F3D1E8
:1006900018E000BFFFF702FFC11B49450BD8606897
:1006A000C0F381000228F5D10CE000BFFFF7F6FE91
:1006B000C11B494502D90320BDE8F087606810F0EE
:1006C0000C0FF3D1D8F80010404601F00701B142F9
:1006D0000BD9016821F0070131430160006800F087
:1006E0000700B04201D00120E6E72878400705D591
:1006F0006068E96820F4E0600843606028780007DB
:1007000006D56068296920F4605040EAC100606045
:1007100000F03CF86168084AC1F30311515CC8401D
:10072000064908600020FFF7D9FE0020C4E700005A
:100730000020024000100240081800081C000020A1
:1007400001480068704700001C000020044805496B
:1007500000684968044AC1F30221515CC8407047EF
:100760001C00002000100240181800080448054929
:1007700000684968044AC1F3C221515CC84070470F
:100780001C000020001002401818000812A185B0BB
:100790000FC98DE80F0014A0144A00680490516836
:1007A000134801F00C03042B10D0082B0ED1C1F319
:1007B0008343C9031DF803000AD5516804AAC1F395
:1007C0004041515C0A4A5043B0FBF1F005B070471C
:1007D00008494843FAE70000020304050607080930
:1007E0000A0B0C0D0E0F1010010200000010024049
:1007F00000127A0000093D002DE9F84F0446007808
:10080000B94DC00748D06868C0F38100012807D0FF
:100810006868C0F38100022809D16868C00306D562
:100820002868800338D5606800286FD034E060689D
:10083000B0F5803F0BD010B1B0F5A02F11D02868D3
:1008400020F480302860286820F4802002E02868A6
:1008500040F480302860606888B1FFF71FFE0646CC
:1008600009E0286840F480202860F0E7FFF716FED2
:10087000801B642875D828688003F7D50CE0FFF743
:100880000DFE064605E000BFFFF708FE801B64284A
:10089000F0D828688003F7D42078944E80074FF072
:1008A00001094FF000083BD5686810F00C0F07D025
:1008B0006868C0F38100022809D16868C00306D4C3
:1008C0002868800714D5206901281FD110E020690D
:1008D000B0B1C6F80090FFF7E1FD074605E000BFA4
:1008E000FFF7DCFDC01B0228C4D828688007F7D5B5
:1008F0002868616920F0F80040EAC10028600FE034
:10090000C6F80080FFF7CAFD074606E0E9E000BF31
:10091000FFF7C4FDC01B022823D828688007F7D43E
:10092000207800072CD57248A169D9B1C0F8009091
:10093000FFF7B4FD074604E0FFF7B0FDC01B022837
:100940000FD8686A8007F7D56A484FF4FA510068F3
:10095000B0FBF1F0009000BF0098411E0091FAD268
:100960000EE080E0C0F80080FFF798FD074604E045
:10097000FFF794FDC01B022875D8686A8007F7D47A
:100980002078400760D5E8690027C00008D4E869EE
:1009900040F08050E861E869012700F08050009045
:1009A00055480168C90513D40168834641F4807134
:1009B0000160FFF773FD824606E000BFFFF76EFDA2
:1009C000A0EB0A0064284ED8DBF80000C005F5D57E
:1009D000E06801280AD008B1052813D0286A20F061
:1009E00001002862286A20F0040002E0286A40F032
:1009F00001002862E06841F2883B98B1FFF74EFDA4
:100A000082460BE0286A40F004002862EEE700BF4F
:100A1000FFF744FDA0EB0A0159455AD8286A800720
:100A2000F6D50CE0FFF73AFD824605E0FFF736FD0C
:100A3000A0EB0A0159454CD8286A8007F6D41FB1AB
:100A4000E86920F08050E861E06988B36968C1F323
:100A50008101022945D00228C6F8608004D0FFF742
:100A60001DFD044638E034E0FFF718FD074604E0BA
:100A7000FFF714FDC01B02282BD828688001F7D48B
:100A8000206AB0F5803F05D16868A16820F4003085
:100A900008436860D4E908010843696821F47411C7
:100AA00008436860C6F86090FFF7F8FC044606E06B
:100AB00015E000BFFFF7F2FC001B022809D82868E8
:100AC0008001F7D50BE000BFFFF7E8FC001B022810
:100AD00002D90320BDE8F88F28688001F4D40020F3
:100AE000F8E70120F6E70000001002400000424253
:100AF000800442421C0000200070004010B5401EDF
:100B0000B0F1807F01D3012010BD4FF0E02460617F
:100B10000F21601700F0DEFA0020A061072020619D
:100B2000002010BD7047000070B5026804461068D0
:100B3000D168536910F00F0F50D003F0010501F494
:100B4000907635435DD0C20705D0CA0503D5E26B68
:100B500042F00102E263420705D5DA0703D0E26BF7
:100B600042F00202E263820705D5DA0703D0E26BA6
:100B700042F00402E263020705D5DA0703D0E26B14
:100B800042F00802E263E26B002A33D0800604D50B
:100B9000880602D5204600F013FB20684069E16B0F
:100BA000C0F38010090700D428B3204600F0FAFAF9
:100BB0002068416949061AD5416921F04001416127
:100BC000606BA0B11B494163606BFFF71DFB002800
:100BD00010D0606B416BBDE870400847830610D5AC
:100BE0008B060ED52046BDE8704000F0E9BA2046DD
:100BF000FFF798FF70BD2046FFF794FF0020E063E9
:100C000070BD030606D50B0604D52046BDE870402E
:100C100000F0DABB4006F3D54806F1D5D16820468E
:100C200021F04001D160202184F8391000F053F9FF
:100C300070BD00009511000870B5040004D094F850
:100C40003900002510B106E0012070BD84F838504D
:100C5000204600F023F8242084F839002068C16879
:100C600021F40051C160204600F0F6FA20680169C5
:100C700021F4904101612068416921F02A0141611C
:100C80002068C16841F40051C160E563202084F808
:100C9000390084F83A00002070BD000030B585B0FE
:100CA0000024009401940294039400681949884236
:100CB0002DD11948816941F480418161816901F434
:100CC00080410491816941F0040181618069134D83
:100CD00000F0040004904FF4007000900220019096
:100CE0000320039069462846FFF7ECFA2815CDE962
:100CF00000040120029069462846FFF7E3FA00222B
:100D000011462520FFF734FC2520FFF725FC05B010
:100D100030BD0000003801400010024000080140D2
:100D200090F83A30202B22D1F9B1F2B190F8383056
:100D3000012B1CD081628285C2850021C1632222E1
:100D400080F83A2080F838100168CA6842F480724E
:100D5000CA6001684A6942F001024A610068C168DC
:100D600041F02001C160002070470120704702203F
:100D70007047000010B500682349884243D12349D9
:100D8000234800240A7822B90023C4545B1C142B86
:100D9000FBDB4B782E2B03D08354521C0A7029E0C6
:100DA00084540C70017831290FD01A48322910D0A0
:100DB000332910D0342910D0352910D0362910D03D
:100DC000372910D0382911D014E04FF400411248CF
:100DD0000EE008210CE010210AE0202108E040216B
:100DE00006E0802104E04FF4807101E04FF40071CF
:100DF000FFF74BFB054906480122491CBDE810409E
:100E00001430FFF78DBF10BD0038014000000020F6
:100E100024000020000C0140000801402DE9F843A7
:100E2000044690F839001F4616460D46202850D13A
:100E3000A5B19EB194F8380001284AD0012084F869
:100E400038004FF00008C4F83C80212084F83900B5
:100E5000FFF724FBA6848146E68426E00120BDE856
:100E6000F883E08C401EE084A0684B46B0F5805FBC
:100E70004FF000024FF080012046009703D000F0B1
:100E8000D4FAE8B90DE000F0D0FAC8B92888216892
:100E9000C0F308004860206908B16D1C05E0AD1C76
:100EA00003E0216815F8010B4860E08C0028D8D1D8
:100EB0004B46002240212046009700F0B6FA08B1C8
:100EC0000320CCE7202084F8390084F83880002003
:100ED000C5E70220C3E77047FEE7000010B5094CE4
:100EE000012202212046FFF7D4FA0120FFF7D8F9AA
:100EF000002202212046FFF7CCFABDE81040012075
:100F0000FFF7CEB90008014041B1012908D00229FC
:100F100008D0D4210844C0B200F076B88021F9E7A7
:100F2000C021F7E79421F5E710B5164C0022022105
:100F30002046FFF7AEFA002201212046FFF7A9FA6A
:100F40001420FFF7ADF9302000F03EF8FFF7C6FFA0
:100F5000FFF7C4FFFFF7C2FF022000F035F8FFF7EC
:100F6000BDFF282000F050F80C2000F04DF80620BE
:100F700000F04AF80220FFF793F9BDE81040012085
:100F800000F042B80008014070B5084C0546012247
:100F900011462046FFF77DFA284600F035F8204636
:100FA000BDE8704000220121FFF773BA000801403C
:100FB00010B5044603E000BFFFF7E6FF641C20788D
:100FC0000028F9D110BD000070B50E4D044600F0A8
:100FD000010204212846FFF75CFAC4F3400208210D
:100FE0002846FFF756FAC4F3800210212846FFF77F
:100FF00050FAC4F3C0022846BDE870402021FFF734
:1010000048BA00000008014010B504460009FFF787
:10101000DBFFFFF763FF2046FFF7D6FFBDE8104078
:10102000FFF75CBF2DE9F04385B00024254800940C
:10103000019402940394816941F0200181618169E6
:1010400001F020010491816941F00401816181690D
:1010500001F004010491816941F008018161806916
:10106000DFF8648000F0080048F23F050490002299
:1010700029464046FFF70DFADFF850904FF47E778F
:10108000002239464846FFF704FA0095022601255A
:101090000396CDE9015469464046FFF713F9402015
:1010A000CDE90004694640460294FFF70BF900972A
:1010B0000396CDE9015469464846FFF703F905B0A8
:1010C000BDE8F0830010024000080140000C014020
:1010D000FEE770470907090E002806DA00F00F0046
:1010E00000F1E02080F8141D704700F1E02080F846
:1010F0000014704770477047FFF7D6B930B58FB00E
:1011000028216846FFF715F814210AA8FFF711F8FF
:1011100001210804CDE90010002402940225049165
:10112000CDE907504FF4E01009906846FFF764FBE3
:101130000F20CDE90A056802CDE90C4002210AA87A
:101140000E94FFF747FA0FB030BD00000D4801685C
:1011500041F00101016041680B4A114041600168A2
:101160000A4A11400160016821F480210160416850
:1011700021F4FE0141604FF41F0181600449C00366
:1011800008607047001002400000FFF8FFFFF6FE05
:1011900008ED00E010B5406A0021C185C184FFF769
:1011A000C1FC10BD0168CA6822F49072CA6001686F
:1011B0004A6922F001024A61202180F83A10704702
:1011C00010B590F83A10222901D0022010BD816894
:1011D000B1F5805F11D00169002901681FD049680D
:1011E00001F07F03816A4A1C82620B70C18D491E27
:1011F0000904090CC18518D02BE00269816A002A14
:101200000268526805D0D2B20A80816A491C8162A4
:10121000ECE7C2F308020A80816A891CF7E74A6892
:10122000816A4B1C83620A70E0E70168CA6822F099
:101230002002CA600168CA6822F48072CA6001682C
:101240004A6922F001024A61202180F83A10FFF732
:1012500091FD002010BD00002DE9F041044600681A
:101260000169E26821F44051114301612169A068DC
:101270000843616908432168CA6841F20C639A43D4
:101280000243CA6020684169A26921F44071114398
:1012900041614C4920686425322688423CD1FFF7E1
:1012A00065FA00EBC00101EB001061688900B0FB3A
:1012B000F1F7FFF75BFA00EBC00101EB001061688A
:1012C000B0468900B0FBF1F0B0FBF5F06FF018010B
:1012D000484307EB800106EB0110B0FBF5F000F08E
:1012E000F006FFF743FA00EBC00101EB0010616864
:1012F0008900B0FBF1F0B0FBF5F006EB0016FFF74C
:1013000035FA00EBC00101EB001061688900B0FB09
:10131000F1F7FFF72BFA3BE0FFF718FA00EBC001FB
:1013200001EB001061688900B0FBF1F7FFF70EFADE
:1013300000EBC00101EB00106168B0468900B0FB12
:10134000F1F0B0FBF5F06FF01801484307EB8001B6
:1013500006EB0110B0FBF5F000F0F006FFF7F6F930
:1013600000EBC00101EB001061688900B0FBF1F0F7
:10137000B0FBF5F006EB0016FFF7E8F900EBC00153
:1013800001EB001061688900B0FBF1F7FFF7DEF9AF
:1013900000EBC00101EB001061688900B0FBF1F0C7
:1013A000B0FBF5F06FF01801484307EB800108EB44
:1013B0000110B0FBF5F0216800F00F0030448860A8
:1013C000BDE8F0810038014090F83910212901D0A2
:1013D000022070478168B1F5805F016A0BD04A1C1A
:1013E0000262026809785160C18C491E0904090C27
:1013F000C1840ED017E009880268C1F3080151606A
:1014000001690029016A02D0491C0162ECE7891CCC
:10141000FBE70168CA6822F08002CA600068C16800
:1014200041F04001C160002070472DE9F04198462D
:1014300017460E460446069D1DE0681C1BD02DB1C4
:10144000FFF72CF8A0EB0800A84214D92068C16867
:1014500021F4D071C1602068416921F0010141612E
:10146000202084F8390084F83A00002084F83800FD
:101470000320BDE8F0812068006836EA000004D04F
:101480000020B842D9D00020F3E70120F9E700009E
:101490000148FFF749BB000038000020FEE70000CC
:1014A0000FB4054B10B503A9044A029800F017F8D1
:1014B00010BC5DF814FB0000E115000820000020BE
:1014C00002E008C8121F08C1002AFAD1704770470D
:1014D000002001E001C1121F002AFBD170472DE955
:1014E000F84F9946924688460546002706E025288B
:1014F0000AD051464A4690476D1C7F1C2878002828
:10150000F5D13846BDE8F88F002315F8011F1846BD
:101510002E2915D115F8011F04232A290DD06FF0AB
:101520002F022978A1F13004092C09D800EB8000A2
:1015300002EB400008446D1CF3E758F8040B6D1CE7
:101540002A78002ADDD0632A07D0732A0FD01046EC
:1015500051464A4690477F1C2AE018F8042B8DF824
:10156000002000218DF801106E46012103E058F89B
:10157000046B4FF0FF315A074FF0000401D409E02B
:10158000641C84420BDA8C42FADB325D002AF7D10C
:1015900005E0641C8C42FCDB305D0028F9D1274457
:1015A00004E016F8010B51464A469047641EF8D2F3
:1015B0006D1CA3E710B52820FEF70EFE074C402156
:1015C0002046FEF75DFF10B95020FEF705FE4021D2
:1015D0002046FEF755FF0028F9D110BD0008014054
:1015E00013B50A23012269460248FFF717FC0120C0
:1015F0001CBD000038000020FEF75EFFFFF77EFDF7
:10160000FFF710FD50484F49002601604FF4165176
:10161000C0E901160C21C660C0E904618661C6619B
:10162000FFF70AFB012249494748FFF779FBFEF71C
:10163000B1FDFFF779FC00210846FFF765FC44A0E7
:10164000FFF7B6FC414C0A25641EA71D42F2107834
:10165000FEF78EFDFFF7AEFF00F08AF8A07000F0F5
:1016600087F8E07000F084F8207100F081F8607174
:1016700021793030B1FBF5F230323A70B1FBF5F23E
:1016800005FB121130317970B870A078B0FBF5F11C
:101690003031F970B0FBF5F105FB110030303871D5
:1016A000E078002130307871BE710846FFF72CFCDD
:1016B00029A0FFF77DFC2079B0FBF5F03030C0B2F7
:1016C000FFF762FC2079B0FBF5F105FB110030302B
:1016D000FFF75AFC2E20FFF757FC60793030C0B27C
:1016E000FFF752FCDF20FFF74FFC1DA0FFF760FC67
:1016F00001210020FFF708FC1AA0FFF759FCA07891
:10170000B0FBF5F03030C0B2FFF73EFCA078B0FB84
:10171000F5F105FB11003030FFF736FC2E20FFF706
:1017200033FCE0783030C0B2FFF72EFC2520FFF705
:101730002BFC06490DA0491DFFF7B2FE4046FEF7FF
:10174000AFFD85E70038014038000020010000208F
:1017500053494E480000000054454D503A200000C7
:1017600043000000524820203A200000257300006A
:101770002DE9F0410024144F012640213846FEF7A0
:101780007FFE0028F9D02820FEF726FD40213846AC
:10179000FEF776FE90B1C4F1070106FA01F0284386
:1017A000C5B240213846FEF76BFE0028F9D1641C13
:1017B000E4B2082CE1D32846BDE8F081C4F107006B
:1017C00006FA00F08543ECE7000801400448402198
:1017D000016000214160816001460248FEF772BD50
:1017E00078000020000801400548402101600121E7
:1017F00041600221C16001460248FEF763BD00005E
:1018000078000020000801400000000000000000F7
:101810000102030406070809000000000102030496
:10182000401800080000002024000000C014000838
:10183000641800082400002064040000D01400088C
:101840000000000000000000000000000000000098
:1018500001000000100000000000000000A24A0487
:041860000000000084
:04000005080000ED02
:00000001FF
